:100000000C9444010C9475010C9475010C947501C9
:100010000C9475010C9475010C9475010C94750188
:100020000C9475010C9475010C9475010C94750178
:100030000C9475010C9475010C9475010C94750168
:100040000C9475010C9475010C9475010C94750158
:100050000C9475010C9475010C9475010C944C056D
:100060000C9475010C9475010C9475010C94750138
:100070000C9475010C9475010C9475010C94750128
:100080000C9475010C9475010C9475010C94750118
:100090000C9475010C9475010C9475010C94750108
:1000A0000C9475010C9475010C9475010C947501F8
:1000B0000C9475010C9475010C9475010C947501E8
:1000C0000C9475010C9475010C9475010C947501D8
:1000D0000C9475010C9475010C9475010C947501C8
:1000E0000C9475010C949F090C94C2090C940002A5
:1000F0000C94E1010C945D090C94FC010C94B3097F
:100100000C94E0090C94D6090C94CB010C941C02BD
:100110000C94F4090C9462090C94EC010C940E02FA
:100120000C9404020C947B090C9496020C940A0221
:100130000C94E5010C9468040C9471090C948D09DD
:100140000C94C4020C942F0A0C9418020C94850988
:100150000C94F6010C94C6010C9467090C94950953
:100160000C94E9010C94EA090C94A9090C94DD01A2
:100170000C94F2010C9412020C94C3020C94CC095E
:1001800000000A0B02090C0D0E0807030401000011
:10019000000000000000000000000000000000005F
:1001A000000000000000000000000000121110001C
:1001B000000000000000000000000000000000003F
:1001C00000000000000000002200250028002B0095
:1001D0002E003100340002010000050108010B016E
:1001E00000002100240027002A002D0030003300E9
:1001F00001010000040107010A01050505050705C5
:1002000008080808020202020A0A08080404040492
:1002100001010101010101010303030303030303BE
:10022000040707070C0C0C0C0C0C0C0C020202024D
:1002300006060606060606060B0B0B0B0B0B0B0B36
:1002400001021020200808102040102040800201E8
:1002500002010804020101020408102040808040CD
:1002600020100804020180040201804020100804CC
:10027000020108040201010204081020408001026A
:100280000408102040802F0A11241FBECFEFD1E2B6
:10029000DEBFCDBF00E00CBF12E0A0E0B2E0EAE7B5
:1002A000F9E100E00BBF02C007900D92AA3EB10732
:1002B000D9F723E0AAEEB2E001C01D92AF30B20739
:1002C000E1F711E0C4E4D1E000E006C021970109A4
:1002D000802FFE010E94B30CC334D10780E00807D1
:1002E000A9F70E9496050C94BB0C0C94000090E0BA
:1002F000FC01E05CFD4F249186509E4FFC018491EF
:10030000882399F090E0880F991FFC01E052FE4F7E
:10031000A591B491FC01EA53FE4F859194918FB75A
:10032000F894EC91E22BEC938FBF0895282F30E0E6
:10033000F901E058FE4F9491F901E05CFD4F4491C2
:1003400026503E4FF9012491222309F435C0992308
:1003500011F191509231F8F4E92FF0E08827EC5434
:10036000FE4F8F4F0C94B30CE501E901C601DD018E
:10037000E101CB01EC01F201F601FC0100020402F3
:100380000A020E02CB01120218021C0280918000A8
:100390008F7780938000E22FF0E0EE0FFF1FEA538B
:1003A000FE4FA591B4918FB7F894EC91611148C0BC
:1003B00040954E234C938FBF0895809180008F7D90
:1003C000E8CF80918000877FE4CF84B58F7784BDAC
:1003D000E2CF84B58F7DFBCF8091B0008F77809383
:1003E000B000D9CF8091B0008F7DF9CF809190007F
:1003F0008F7780939000CFCF809190008F7DF9CF41
:1004000080919000877FF5CF8091A0008F778093B7
:10041000A000C1CF8091A0008F7DF9CF8091A00076
:10042000877FF5CF809120018F7780932001B3CF14
:10043000809120018F7DF9CF80912001877FF5CFBA
:100440004E2BB8CF863308F0865320917B00982F2F
:100450009870277F922B90937B00877080648093A5
:100460007C0080917A00806480937A0080917A0089
:1004700086FDFCCF809178009091790008953FB778
:10048000F8948091F3029091F402A091F502B0915A
:10049000F60226B5A89B05C02F3F19F00196A11DB5
:1004A000B11D3FBFBA2FA92F982F8827BC01CD01BE
:1004B000620F711D811D911D42E0660F771F881F1D
:1004C000991F4A95D1F708958F929F92AF92BF924C
:1004D000CF92DF92EF92FF924B015C010E943F02AC
:1004E0006B017C010E943F026C197D098E099F09F6
:1004F000683E734081059105A8F321E0821A9108B6
:10050000A108B10888EEC80E83E0D81EE11CF11CDA
:1005100081149104A104B10429F7FF90EF90DF90BA
:10052000CF90BF90AF909F908F900895AF92BF9261
:10053000CF92DF92EF92FF920F931F93CF93DF93AF
:100540006C017B018B01040F151FEB015E01AE18DE
:10055000BF08C017D10759F06991D601ED91FC9100
:100560000190F081E02DC6011995892B79F7C5011D
:10057000DF91CF911F910F91FF90EF90DF90CF907F
:10058000BF90AF900895089590E080E00895FC0139
:1005900001900020E9F73197AF01481B590BBC01CE
:1005A00087EF92E00C9496028F929F92AF92BF9247
:1005B0000F931F93CF93DF93CDB7DEB7A1970FB6FD
:1005C000F894DEBF0FBECDBF19A2423008F44AE056
:1005D0008E010F5D1F4F842E912CB12CA12CA501F3
:1005E00094010E94910CE62FB901CA01EA30F4F49B
:1005F000E05DD801EE938D01232B242B252B79F779
:1006000090E080E0109719F0CD010E94C702A196FA
:100610000FB6F894DEBF0FBECDBFDF91CF911F9113
:100620000F91BF90AF909F908F900895E95CE1CFBC
:100630000C94C702CF93DF93EC0160E08E810E949F
:10064000960161E08E810E94960160E08E810E9499
:1006500096018BE891E00197F1F7DF91CF91089532
:10066000CF92DF92EF92FF920F931F93CF93DF937E
:100670006C017C0187E0E80EF11CD0E0C0E0062FA1
:1006800010E0B8010C2E02C0759567950A94E2F748
:100690006170F70181917F010E9496012196C4301B
:1006A000D10579F7C601DF91CF911F910F91FF908E
:1006B000EF90DF90CF900C941A03CF92DF92EF92DD
:1006C000FF920F931F93CF93DF93EC01F62E642FCD
:1006D0008C810E9496018D818F3F19F060E00E940D
:1006E00096010F2D10E08F8584FF25C06E0187E0F5
:1006F000C80ED11CF12CE12CB8010E2C02C075954E
:1007000067950A94E2F76170F60181916F010E948A
:100710009601FFEFEF1AFF0A88E0E816F10461F78F
:10072000CE01DF91CF911F910F91FF90EF90DF905D
:10073000CF900C941A03B80184E0759567958A955B
:10074000E1F7CE010E9430036F2DCE01DF91CF91F2
:100750001F910F91FF90EF90DF90CF900C9430039A
:1007600040E0682F87EF92E00C945D0381E00E94E7
:10077000B0038BE39FE10197F1F70895CF93DF93E7
:10078000613029F09091060398609093060360937E
:100790000A0310920B0390E490930C0380930D03D3
:1007A000805C80930E038091FB020E947701809110
:1007B000FC028F3F11F00E9477018091FD020E94A0
:1007C0007701C7EFD2E09E01275F32408091060398
:1007D00084FD0AC084E090E02196281739073CF494
:1007E0008E810E947701EFCF88E090E0F5CF8BE318
:1007F0009DE00197F1F760E08091FB020E94960175
:1008000060E08091FD020E9496018091FC028F3F82
:1008100019F060E00E9496018091060384FD34C0C7
:1008200063E087EF92E00E943003CBE4D6E4CE0190
:100830000197F1F763E087EF92E00E943003219780
:10084000F1F763E087EF92E00E94300383E592E0E6
:100850000197F1F762E087EF92E00E943003809108
:10086000060380620E94B00384E0809307038CE05B
:100870000E94B0030E94B60382E08093080386E0E2
:10088000DF91CF910C94B00380620E94B0038BE49F
:1008900096E40197F1F78091060380620E94B0030D
:1008A00083E592E00197F1F78091060380620E9450
:1008B000B003D5CF90910A03891710F08FEF890FFD
:1008C000E82FF0E0E950FD4F848980680C94B00374
:1008D00041E00E945D0381E090E008954F925F92B5
:1008E0006F927F928F929F92AF92BF92CF92DF9240
:1008F000EF92FF920F931F93CF936B017C01742EA5
:10090000AC019B010E948C0C882399F080E192E05D
:10091000CF911F910F91FF90EF90DF90CF90BF90FC
:10092000AF909F908F907F906F905F904F900C94BE
:10093000C70246015701E894B7F82FEF3FEF4FE7A2
:100940005FE7C501B4010E948C0C81110DC02FEF2F
:100950003FEF4FE75FE7C501B4010E94BB0A1816DD
:100960001CF484E192E0D4CF2FEF3FEF4FE75FE438
:10097000C701B6010E941A0C18161CF488E192E017
:10098000C7CF2FEF3FEF4FE75FECC701B6010E94E3
:10099000BB0A87FDF3CF20E030E0A901C701B60113
:1009A0000E94BB0A10E000E087FF0CC041E06DE24E
:1009B00087EF92E00E945D03F7FAF094F7F8F09465
:1009C00001E010E0C0E060E070E080E09FE37C16B2
:1009D00041F020E030E040E251E40E94C00ACF5FE5
:1009E000F6CFA70196010E944F0A4B015C010E94BD
:1009F000390B2B013C014AE00E94D402080F191F59
:100A0000CC23C9F1C301B2010E94680B9B01AC0168
:100A1000C501B4010E944E0A4B015C0141E06EE247
:100A200087EF92E00E945D030F5F1F4FC15018F1E6
:100A300020E030E040E251E4C501B4010E941F0C07
:100A40002B013C010E94390B4B01B12CA12C4AE037
:100A5000C501B4010E94D402080F191FC501B401D9
:100A60000E94680B9B01AC01C301B2010E944E0AB7
:100A70004B015C01DBCFC801CF911F910F91FF901B
:100A8000EF90DF90CF90BF90AF909F908F907F902E
:100A90006F905F904F9008951F920F920FB60F9234
:100AA00011242F933F938F939F93AF93BF93809184
:100AB000EF029091F002A091F102B091F202309118
:100AC000EE0223E0230F2D3758F50196A11DB11D2D
:100AD0002093EE028093EF029093F002A093F10234
:100AE000B093F2028091F3029091F402A091F5028A
:100AF000B091F6020196A11DB11D8093F30290936F
:100B0000F402A093F502B093F602BF91AF919F91CA
:100B10008F913F912F910F900FBE0F901F901895BE
:100B200026E8230F0296A11DB11DD2CFCF93DF93EC
:100B3000CDB7DEB761970FB6F894DEBF0FBECDBF5D
:100B4000789484B5826084BD84B5816084BD85B5A8
:100B5000826085BD85B5816085BD80916E008160B4
:100B600080936E001092810080918100826080935A
:100B7000810080918100816080938100809180005C
:100B80008160809380008091B10084608093B10087
:100B90008091B00081608093B0008091910082606C
:100BA0008093910080919100816080939100809169
:100BB00090008160809390008091A100826080937A
:100BC000A1008091A10081608093A1008091A0008C
:100BD00081608093A0008091210182608093210137
:100BE00080912101816080932101809120018160A9
:100BF0008093200180917A00846080937A008091B4
:100C00007A00826080937A0080917A00816080937C
:100C10007A0080917A00806880937A001092C100F7
:100C200064E084E10E94BE0386E00E94770187E0D1
:100C30000E94770188E10E94770187E10E94770195
:100C400086E10E94770161E087E00E94960160E002
:100C500088E10E94960160E087E10E94960160E0D1
:100C600086E10E94960180E090E0A8ECB2E48093D7
:100C7000000290930102A0930202B093030286E067
:100C80000E94770161E086E00E9496010E94B6030F
:100C900080E00E945A048CE192E00E94180381E0F7
:100CA0000E945A0487E292E00E94180360ED77E008
:100CB00080E090E00E9464020E94B6032FB7F8948F
:100CC0008091EF029091F002A091F102B091F202B6
:100CD0002FBF8093EA029093EB02A093EC02B093B3
:100CE000ED0286E30E942202BC01990F880B990B4A
:100CF0000E946A0B20E030E040EA50E40E941F0CA2
:100D000020E030EC4FE754E40E94C00A20E030E0DD
:100D100040E351E40E941F0C062F372E282E9983A2
:100D200087E30E942202BC01990F880B990B0E9455
:100D30006A0B20E030E040EA50E40E941F0C20E003
:100D400030EC4FE754E40E94C00A20E030E040E37A
:100D500051E40E941F0C6B017C0188E30E94220277
:100D6000BC01990F880B990B0E946A0B20E030E0C0
:100D700040EA50E40E941F0C20E030EC4FE754E4BE
:100D80000E94C00A20E030E040E351E40E941F0CC2
:100D90006B877C878D879E87202F332D422D59812D
:100DA000C701B6010E944E0A6A837B838C839D83B0
:100DB000A70196016B857C858D859E850E944E0AD4
:100DC0006E837F8388879987202F332D422D598109
:100DD0006A817B818C819D810E94BB0A102F310129
:100DE000598087FF04C01A817B806C805D80212F31
:100DF000372D462D552D6E817F81888599850E94DE
:100E0000BB0A87FF04C01E817F80688459842DEC53
:100E10003CEC4CE650E4602F732D822D99810E94AA
:100E2000BB0A18160CF00DC22DEC3CEC4CE650E45D
:100E30006A817B818C819D810E94BB0A18160CF00F
:100E400000C22DEC3CEC4CE650E46E817F8188853D
:100E500099850E94BB0A18160CF0F3C161E087E087
:100E60000E9496011A8689E30E942202BC01990F12
:100E7000880B990B0E946A0B20E030E040EA50E4B6
:100E80000E941F0C20E030EC4FE754E40E94C00A9F
:100E900020E030E040E250E40E944E0A22E03BE2D3
:100EA00047E85DE30E94C00A6B017C012DEC3CEC3D
:100EB0004CE45DEB0E941A0C18166CF42DEC3CEC23
:100EC0004CE45DE3C701B6010E94BB0A87FF03C083
:100ED000C12CD12C76018FB7F8948090EF029090BE
:100EE000F002A090F102B090F2028FBF8091EA026E
:100EF0009091EB02A091EC02B091ED02A50194015A
:100F0000281B390B4A0B5B0BCA01B9010E94680B05
:100F100020E03AEB4BE55AE40E94C00A8092EA02D4
:100F20009092EB02A092EC02B092ED02A701960122
:100F30000E941F0C20E030E040E05FE30E941F0CA5
:100F400020E030E048EC52E40E941F0C9B01AC0111
:100F5000609100027091010280910202909103025F
:100F60000E944E0A4B015C0120E030E048EC52E464
:100F70000E941A0C18160CF46BC180920002909219
:100F80000102A0920202B092030220E030E0A90127
:100F9000609100027091010280910202909103021F
:100FA0000E94BB0A87FF08C0109200021092010243
:100FB000109202021092030220E030E04FE753E467
:100FC00060910002709101028091020290910302EF
:100FD0000E941F0C20E030E048EC52E40E94C00A5E
:100FE0000E94320B4B01788B6F8786E00E9477015D
:100FF0004F855889141615060CF437C160E086E059
:101000000E9496018AE30E942202BC01990F880B7C
:10101000990B0E946A0B20E030E040EA50E40E9405
:101020001F0C20E030EC4FE754E40E94C00A20E09F
:1010300030E048EC52E40E941F0C4B015C013A8501
:10104000332309F4D8C12DEC3CEC4CE45DE3612F73
:10105000772D862D952D0E944F0A2B013C01202FC4
:10106000332D422D59810E94BB0A182F111F1127C1
:10107000111F41E0498BA30192016A817B818C8120
:101080009D810E941A0C18160CF0198A51E05F8796
:10109000A30192016E817F81888599850E941A0C37
:1010A00018160CF01F86612F88E10E94960169894D
:1010B00087E10E9496016F8586E10E9496010E9459
:1010C000B60380E00E945A048AE392E00E9418036B
:1010D00042E0602F732D822D99810E946E048EE371
:1010E00092E00E94180381E492E00E94180342E01B
:1010F0006A817B818C819D810E946E0481E00E94C7
:101100005A0485E492E00E94180342E06E817F81D8
:10111000888599850E946E048EE392E00E941803F0
:1011200089E492E00E94180341E06B857C858D85FF
:101130009E850E946E0482E00E945A048CE492E034
:101140000E94180342E0C701B6010E946E048FE4BA
:1011500092E00E94180382E592E00E94180341E0A9
:10116000C501B4010E946E0486EC92E00E9418034F
:1011700083E00E945A048A85811141C185E592E08D
:101180000E9418036CED75E080E090E00E9464021C
:101190000E94B60380E00E945A048EEA92E00E9408
:1011A00018036091000270910102809102029091F7
:1011B000030241E00E946E0485EB92E00E94180356
:1011C00081E00E945A0487EB92E00E94180341E0FC
:1011D00060E070E08EEB92E40E946E0485EB92E09A
:1011E0000E94180382E00E945A048EEB92E00E9453
:1011F000180341E0C501B4010E946E0485EC92E041
:101200000E94180383E00E945A0420E030E044E387
:1012100052E4C501B4010E941A0C87FD18C188EC84
:1012200092E00E94180360ED77E080E090E00E9479
:10123000640280E090E0892B09F453CD0E94000005
:1012400050CD60E087E00E94960121E02A870BCE16
:1012500080E090E0A8ECB2E4809300029093010259
:10126000A0930202B093030290CE8F8598898F3F9E
:10127000910514F061E0C3CEE6E8F1E08491EFEF70
:10128000E80FE23108F0B0C0F0E08827E55BF64FE8
:101290008F4F0C94B30C5D096209670971097B09D2
:1012A000F40985098D0995099F09A909B309C2099E
:1012B000CC09F409D609E009EA0984B5806884BD3F
:1012C00087BCA0CE84B5806284BD88BC9BCE809153
:1012D00080008068809380009092890080928800CE
:1012E00091CE8091800080628093800090928B00EC
:1012F00080928A0087CE80918000886080938000F1
:1013000090928D0080928C007DCE8091B00080689C
:101310008093B0008092B30075CE8091B00080625F
:101320008093B0008092B4006DCE80919000806870
:1013300080939000909299008092980063CE809163
:10134000900080628093900090929B0080929A001F
:1013500059CE8091900088608093900090929D007B
:1013600080929C004FCE8091A00080688093A00066
:101370008091A0008F7B8093A0009092A900809222
:10138000A80040CE8091A00080628093A00090923F
:10139000AB008092AA0036CE8091A0008860809336
:1013A000A0009092AD008092AC002CCE80912001E4
:1013B000806880932001909229018092280122CE9A
:1013C0008091200180628093200190922B01809275
:1013D0002A0118CE8091200188608093200190928C
:1013E0002D0180922C010ECE2F85388920383105B1
:1013F0000CF040CF03CE1F86198A10E054CE112383
:1014000099F09989992341F0EF8585E692E0E11101
:10141000B7CE82E792E0B4CEFF858CE792E0F1117F
:10142000AFCE80E992E0ACCE2989222341F03F85FE
:1014300086E892E03111A4CE87E992E0A1CE4F85F3
:101440008EE992E041119CCE85EA92E099CE5A85D0
:1014500082ED92E05111E5CE8BED92E0E2CEE7EF26
:10146000F2E01382128288E092E0918380838CE024
:1014700084838FEF85838BE0868385E0878384E098
:10148000808783E0818782E08287138614861586B1
:101490001686178661E080E10C94BE035058BB2786
:1014A000AA270E94660A0C94E00B0E94D20B38F027
:1014B0000E94D90B20F039F49F3F19F426F40C94C4
:1014C000CF0B0EF4E095E7FB0C94C90BE92F0E94BB
:1014D000F10B58F3BA17620773078407950720F0DA
:1014E00079F4A6F50C94130C0EF4E0950B2EBA2F9C
:1014F000A02D0B01B90190010C01CA01A00111241A
:10150000FF27591B99F0593F50F4503E68F11A16C5
:10151000F040A22F232F342F4427585FF3CF469556
:1015200037952795A795F0405395C9F77EF41F1678
:10153000BA0B620B730B840BBAF09150A1F0FF0F42
:10154000BB1F661F771F881FC2F70EC0BA0F621F2E
:10155000731F841F48F4879577956795B795F7951E
:101560009E3F08F0B0CF9395880F08F09927EE0FB3
:101570009795879508950E94A50B08F481E008953A
:101580000E94D40A0C94E00B0E94D90B58F00E94E0
:10159000D20B40F029F45F3F29F00C94C90B511194
:1015A0000C94140C0C94CF0B0E94F10B68F399234C
:1015B000B1F3552391F3951B550BBB27AA2762174F
:1015C0007307840738F09F5F5F4F220F331F441F5C
:1015D000AA1FA9F335D00E2E3AF0E0E832D0915090
:1015E0005040E695001CCAF72BD0FE2F29D0660F7D
:1015F000771F881FBB1F261737074807AB07B0E8C0
:1016000009F0BB0B802DBF01FF2793585F4F3AF0C5
:101610009E3F510578F00C94C90B0C94140C5F3F5D
:10162000E4F3983ED4F3869577956795B795F7954B
:101630009F5FC9F7880F911D9695879597F9089533
:10164000E1E0660F771F881FBB1F621773078407CF
:10165000BA0720F0621B730B840BBA0BEE1F88F7DE
:10166000E09508950E94390B6894B1110C94140C04
:1016700008950E94F90B88F09F5798F0B92F992789
:10168000B751B0F0E1F0660F771F881F991F1AF06D
:10169000BA95C9F714C0B13091F00E94130CB1E0B3
:1016A00008950C94130C672F782F8827B85F39F0B2
:1016B000B93FCCF3869577956795B395D9F73EF406
:1016C00090958095709561957F4F8F4F9F4F0895AE
:1016D000E89409C097FB3EF49095809570956195CC
:1016E0007F4F8F4F9F4F9923A9F0F92F96E9BB2782
:1016F0009395F695879577956795B795F111F8CFFE
:10170000FAF4BB0F11F460FF1BC06F5F7F4F8F4F68
:101710009F4F16C0882311F096E911C0772321F05E
:101720009EE8872F762F05C0662371F096E8862FF6
:1017300070E060E02AF09A95660F771F881FDAF74D
:10174000880F9695879597F90895990F0008550F7A
:10175000AA0BE0E8FEEF16161706E807F907C0F037
:1017600012161306E407F50798F0621B730B840B3F
:10177000950B39F40A2661F0232B242B252B21F419
:1017800008950A2609F4A140A6958FEF811D811DB9
:10179000089597F99F6780E870E060E008959FEFF3
:1017A00080EC089500240A941616170618060906F8
:1017B000089500240A9412161306140605060895C7
:1017C000092E0394000C11F4882352F0BB0F40F44F
:1017D000BF2B11F460FF04C06F5F7F4F8F4F9F4F8F
:1017E000089557FD9058440F551F59F05F3F71F011
:1017F0004795880F97FB991F61F09F3F79F0879578
:101800000895121613061406551FF2CF4695F1DF00
:1018100008C0161617061806991FF1CF8695710590
:10182000610508940895E894BB2766277727CB01C4
:1018300097F908950E94A50B08F48FEF08950E9470
:10184000320C0C94E00B0E94D20B38F00E94D90BA2
:1018500020F0952311F00C94C90B0C94CF0B11249C
:101860000C94140C0E94F10B70F3959FC1F3950F2B
:1018700050E0551F629FF001729FBB27F00DB11D14
:10188000639FAA27F00DB11DAA1F649F6627B00DA4
:10189000A11D661F829F2227B00DA11D621F739F8D
:1018A000B00DA11D621F839FA00D611D221F749F9B
:1018B0003327A00D611D231F849F600D211D822FE2
:1018C000762F6A2F11249F5750409AF0F1F0882309
:1018D0004AF0EE0FFF1FBB1F661F771F881F915036
:1018E0005040A9F79E3F510580F00C94C90B0C9411
:1018F000140C5F3FE4F3983ED4F386957795679593
:10190000B795F795E7959F5FC1F7FE2B880F911D5F
:101910009695879597F908950E94A50B880B990BCA
:101920000895A1E21A2EAA1BBB1BFD010DC0AA1F20
:10193000BB1FEE1FFF1FA217B307E407F50720F038
:10194000A21BB30BE40BF50B661F771F881F991FB3
:101950001A9469F760957095809590959B01AC01FC
:10196000BD01CF010895EE0FFF1F881F8BBF0790A9
:0A197000F691E02D1994F894FFCFD2
:10197A000000C8420000000068049602C402C302C4
:10198A006E616E00696E66006F76660033204345AD
:10199A004C4C20424D53005354415455533A204C19
:1019AA004F4144494E472E2E2E0043313A005620CD
:1019BA000043323A0043333A00503A00493A004170
:1019CA002000543A004C4F41443A4F4E2042414C79
:1019DA003A4F46460042414C3A4331204332204373
:1019EA00330042414C3A43312043320042414C3A9F
:1019FA0043312043330042414C3A433220433300BF
:101A0A0042414C3A43310042414C3A43320042414E
:101A1A004C3A43330042414C3A4E4F4E4500534FE5
:101A2A0043203A20002500534F48203A20005445CD
:101A3A004D503A200020430054454D502048494714
:101A4A0048004C4F4144204F464600535953544591
:0A1A5A004D204E4F524D414C00004C
:00000001FF
